{
  "_format": "hh-sol-artifact-1",
  "contractName": "Staking",
  "sourceName": "contracts/Staking.sol",
  "abi": [
    {
      "inputs": [
        {
          "internalType": "address",
          "name": "_stakingToken",
          "type": "address"
        },
        {
          "internalType": "address",
          "name": "_rewardsToken",
          "type": "address"
        }
      ],
      "stateMutability": "nonpayable",
      "type": "constructor"
    },
    {
      "anonymous": false,
      "inputs": [
        {
          "indexed": true,
          "internalType": "address",
          "name": "sender",
          "type": "address"
        },
        {
          "indexed": false,
          "internalType": "uint256",
          "name": "amount",
          "type": "uint256"
        }
      ],
      "name": "Staked",
      "type": "event"
    },
    {
      "anonymous": false,
      "inputs": [
        {
          "indexed": true,
          "internalType": "address",
          "name": "sender",
          "type": "address"
        },
        {
          "indexed": false,
          "internalType": "uint256",
          "name": "amount",
          "type": "uint256"
        }
      ],
      "name": "Widthdrawn",
      "type": "event"
    },
    {
      "inputs": [
        {
          "internalType": "uint256",
          "name": "amount",
          "type": "uint256"
        }
      ],
      "name": "approveAndDeposit",
      "outputs": [],
      "stateMutability": "nonpayable",
      "type": "function"
    },
    {
      "inputs": [
        {
          "internalType": "uint256",
          "name": "amount",
          "type": "uint256"
        }
      ],
      "name": "deposit",
      "outputs": [],
      "stateMutability": "nonpayable",
      "type": "function"
    },
    {
      "inputs": [],
      "name": "rewardsToken",
      "outputs": [
        {
          "internalType": "contract IERC20",
          "name": "",
          "type": "address"
        }
      ],
      "stateMutability": "view",
      "type": "function"
    },
    {
      "inputs": [],
      "name": "stakingToken",
      "outputs": [
        {
          "internalType": "contract IERC20",
          "name": "",
          "type": "address"
        }
      ],
      "stateMutability": "view",
      "type": "function"
    },
    {
      "inputs": [
        {
          "internalType": "uint256",
          "name": "amount",
          "type": "uint256"
        }
      ],
      "name": "widthdraw",
      "outputs": [],
      "stateMutability": "nonpayable",
      "type": "function"
    }
  ],
  "bytecode": "0x608060405234801561001057600080fd5b50604051610f08380380610f08833981810160405281019061003291906100cf565b816000806101000a81548173ffffffffffffffffffffffffffffffffffffffff021916908373ffffffffffffffffffffffffffffffffffffffff16021790555080600160006101000a81548173ffffffffffffffffffffffffffffffffffffffff021916908373ffffffffffffffffffffffffffffffffffffffff1602179055505050610154565b6000815190506100c98161013d565b92915050565b600080604083850312156100e257600080fd5b60006100f0858286016100ba565b9250506020610101858286016100ba565b9150509250929050565b60006101168261011d565b9050919050565b600073ffffffffffffffffffffffffffffffffffffffff82169050919050565b6101468161010b565b811461015157600080fd5b50565b610da5806101636000396000f3fe608060405234801561001057600080fd5b50600436106100575760003560e01c806372f702f31461005c578063a48b61741461007a578063b6b55f2514610096578063d1af0c7d146100b2578063e0da260c146100d0575b600080fd5b6100646100ec565b6040516100719190610b75565b60405180910390f35b610094600480360381019061008f91906109bb565b610110565b005b6100b060048036038101906100ab91906109bb565b61045c565b005b6100ba6106fa565b6040516100c79190610b75565b60405180910390f35b6100ea60048036038101906100e591906109bb565b610720565b005b60008054906101000a900473ffffffffffffffffffffffffffffffffffffffff1681565b60008111610153576040517f08c379a000000000000000000000000000000000000000000000000000000000815260040161014a90610bd0565b60405180910390fd5b8060008054906101000a900473ffffffffffffffffffffffffffffffffffffffff1673ffffffffffffffffffffffffffffffffffffffff166370a08231336040518263ffffffff1660e01b81526004016101ad9190610afa565b60206040518083038186803b1580156101c557600080fd5b505afa1580156101d9573d6000803e3d6000fd5b505050506040513d601f19601f820116820180604052508101906101fd91906109e4565b101561023e576040517f08c379a000000000000000000000000000000000000000000000000000000000815260040161023590610b90565b60405180910390fd5b80600260008282546102509190610c1c565b9250508190555080600360003373ffffffffffffffffffffffffffffffffffffffff1673ffffffffffffffffffffffffffffffffffffffff16815260200190815260200160002060008282546102a69190610c1c565b9250508190555060008054906101000a900473ffffffffffffffffffffffffffffffffffffffff1673ffffffffffffffffffffffffffffffffffffffff1663095ea7b330836040518363ffffffff1660e01b8152600401610308929190610b4c565b602060405180830381600087803b15801561032257600080fd5b505af1158015610336573d6000803e3d6000fd5b505050506040513d601f19601f8201168201806040525081019061035a9190610992565b5060008054906101000a900473ffffffffffffffffffffffffffffffffffffffff1673ffffffffffffffffffffffffffffffffffffffff166323b872dd3330846040518463ffffffff1660e01b81526004016103b893929190610b15565b602060405180830381600087803b1580156103d257600080fd5b505af11580156103e6573d6000803e3d6000fd5b505050506040513d601f19601f8201168201806040525081019061040a9190610992565b503373ffffffffffffffffffffffffffffffffffffffff167f9e71bc8eea02a63969f509818f2dafb9254532904319f9dbda79b67bd34a5f3d826040516104519190610bf0565b60405180910390a250565b6000811161049f576040517f08c379a000000000000000000000000000000000000000000000000000000000815260040161049690610bd0565b60405180910390fd5b8060008054906101000a900473ffffffffffffffffffffffffffffffffffffffff1673ffffffffffffffffffffffffffffffffffffffff166370a08231336040518263ffffffff1660e01b81526004016104f99190610afa565b60206040518083038186803b15801561051157600080fd5b505afa158015610525573d6000803e3d6000fd5b505050506040513d601f19601f8201168201806040525081019061054991906109e4565b101561058a576040517f08c379a000000000000000000000000000000000000000000000000000000000815260040161058190610b90565b60405180910390fd5b806002600082825461059c9190610c1c565b9250508190555080600360003373ffffffffffffffffffffffffffffffffffffffff1673ffffffffffffffffffffffffffffffffffffffff16815260200190815260200160002060008282546105f29190610c1c565b9250508190555060008054906101000a900473ffffffffffffffffffffffffffffffffffffffff1673ffffffffffffffffffffffffffffffffffffffff166323b872dd3330846040518463ffffffff1660e01b815260040161065693929190610b15565b602060405180830381600087803b15801561067057600080fd5b505af1158015610684573d6000803e3d6000fd5b505050506040513d601f19601f820116820180604052508101906106a89190610992565b503373ffffffffffffffffffffffffffffffffffffffff167f9e71bc8eea02a63969f509818f2dafb9254532904319f9dbda79b67bd34a5f3d826040516106ef9190610bf0565b60405180910390a250565b600160009054906101000a900473ffffffffffffffffffffffffffffffffffffffff1681565b60008111610763576040517f08c379a000000000000000000000000000000000000000000000000000000000815260040161075a90610bb0565b60405180910390fd5b80600360003373ffffffffffffffffffffffffffffffffffffffff1673ffffffffffffffffffffffffffffffffffffffff1681526020019081526020016000205410156107e5576040517f08c379a00000000000000000000000000000000000000000000000000000000081526004016107dc90610b90565b60405180910390fd5b80600260008282546107f79190610c72565b9250508190555080600360003373ffffffffffffffffffffffffffffffffffffffff1673ffffffffffffffffffffffffffffffffffffffff168152602001908152602001600020600082825461084d9190610c72565b9250508190555060008054906101000a900473ffffffffffffffffffffffffffffffffffffffff1673ffffffffffffffffffffffffffffffffffffffff1663a9059cbb33836040518363ffffffff1660e01b81526004016108af929190610b4c565b602060405180830381600087803b1580156108c957600080fd5b505af11580156108dd573d6000803e3d6000fd5b505050506040513d601f19601f820116820180604052508101906109019190610992565b503373ffffffffffffffffffffffffffffffffffffffff167fd6721f1d201ce0e8a8163324e5cf62526b032bc3e30629e6fddfb355922b126d826040516109489190610bf0565b60405180910390a250565b60008151905061096281610d41565b92915050565b60008135905061097781610d58565b92915050565b60008151905061098c81610d58565b92915050565b6000602082840312156109a457600080fd5b60006109b284828501610953565b91505092915050565b6000602082840312156109cd57600080fd5b60006109db84828501610968565b91505092915050565b6000602082840312156109f657600080fd5b6000610a048482850161097d565b91505092915050565b610a1681610ca6565b82525050565b610a2581610cee565b82525050565b6000610a38600f83610c0b565b91507f42616c616e636520746f6f206c6f7700000000000000000000000000000000006000830152602082019050919050565b6000610a78601883610c0b565b91507f43616e6e6f7420776964746864726177206e6f7468696e6700000000000000006000830152602082019050919050565b6000610ab8601483610c0b565b91507f43616e6e6f74207374616b65206e6f7468696e670000000000000000000000006000830152602082019050919050565b610af481610ce4565b82525050565b6000602082019050610b0f6000830184610a0d565b92915050565b6000606082019050610b2a6000830186610a0d565b610b376020830185610a0d565b610b446040830184610aeb565b949350505050565b6000604082019050610b616000830185610a0d565b610b6e6020830184610aeb565b9392505050565b6000602082019050610b8a6000830184610a1c565b92915050565b60006020820190508181036000830152610ba981610a2b565b9050919050565b60006020820190508181036000830152610bc981610a6b565b9050919050565b60006020820190508181036000830152610be981610aab565b9050919050565b6000602082019050610c056000830184610aeb565b92915050565b600082825260208201905092915050565b6000610c2782610ce4565b9150610c3283610ce4565b9250827fffffffffffffffffffffffffffffffffffffffffffffffffffffffffffffffff03821115610c6757610c66610d12565b5b828201905092915050565b6000610c7d82610ce4565b9150610c8883610ce4565b925082821015610c9b57610c9a610d12565b5b828203905092915050565b6000610cb182610cc4565b9050919050565b60008115159050919050565b600073ffffffffffffffffffffffffffffffffffffffff82169050919050565b6000819050919050565b6000610cf982610d00565b9050919050565b6000610d0b82610cc4565b9050919050565b7f4e487b7100000000000000000000000000000000000000000000000000000000600052601160045260246000fd5b610d4a81610cb8565b8114610d5557600080fd5b50565b610d6181610ce4565b8114610d6c57600080fd5b5056fea2646970667358221220867e92a690dd8ca5967797897cd23726a4db1e3a82ec506ea3e9a09dafa2e1d864736f6c63430008000033",
  "linkReferences": {},
  "deployedLinkReferences": {}
}