{
  "_format": "hh-sol-artifact-1",
  "contractName": "Staking",
  "sourceName": "contracts/Staking.sol",
  "abi": [
    {
      "inputs": [],
      "stateMutability": "nonpayable",
      "type": "constructor"
    },
    {
      "anonymous": false,
      "inputs": [
        {
          "indexed": true,
          "internalType": "address",
          "name": "sender",
          "type": "address"
        },
        {
          "indexed": false,
          "internalType": "uint256",
          "name": "amount",
          "type": "uint256"
        }
      ],
      "name": "Staked",
      "type": "event"
    },
    {
      "anonymous": false,
      "inputs": [
        {
          "indexed": true,
          "internalType": "address",
          "name": "sender",
          "type": "address"
        },
        {
          "indexed": false,
          "internalType": "uint256",
          "name": "amount",
          "type": "uint256"
        }
      ],
      "name": "Widthdrawn",
      "type": "event"
    },
    {
      "inputs": [
        {
          "internalType": "address",
          "name": "tokenAddress",
          "type": "address"
        },
        {
          "internalType": "uint256",
          "name": "amount",
          "type": "uint256"
        }
      ],
      "name": "deposit",
      "outputs": [],
      "stateMutability": "nonpayable",
      "type": "function"
    }
  ],
  "bytecode": "0x608060405234801561001057600080fd5b5061041b806100206000396000f3fe608060405234801561001057600080fd5b506004361061002b5760003560e01c806347e7ef2414610030575b600080fd5b61004a600480360381019061004591906101f1565b61004c565b005b6000811161008f576040517f08c379a00000000000000000000000000000000000000000000000000000000081526004016100869061032f565b60405180910390fd5b6000829050818173ffffffffffffffffffffffffffffffffffffffff166370a08231336040518263ffffffff1660e01b81526004016100ce91906102f4565b60206040518083038186803b1580156100e657600080fd5b505afa1580156100fa573d6000803e3d6000fd5b505050506040513d601f19601f8201168201806040525081019061011e919061022d565b101561015f576040517f08c379a00000000000000000000000000000000000000000000000000000000081526004016101569061030f565b60405180910390fd5b3373ffffffffffffffffffffffffffffffffffffffff167f9e71bc8eea02a63969f509818f2dafb9254532904319f9dbda79b67bd34a5f3d836040516101a5919061034f565b60405180910390a2505050565b6000813590506101c1816103b7565b92915050565b6000813590506101d6816103ce565b92915050565b6000815190506101eb816103ce565b92915050565b6000806040838503121561020457600080fd5b6000610212858286016101b2565b9250506020610223858286016101c7565b9150509250929050565b60006020828403121561023f57600080fd5b600061024d848285016101dc565b91505092915050565b61025f8161037b565b82525050565b6000610272600f8361036a565b91507f42616c616e636520746f6f206c6f7700000000000000000000000000000000006000830152602082019050919050565b60006102b260148361036a565b91507f43616e6e6f74207374616b65206e6f7468696e670000000000000000000000006000830152602082019050919050565b6102ee816103ad565b82525050565b60006020820190506103096000830184610256565b92915050565b6000602082019050818103600083015261032881610265565b9050919050565b60006020820190508181036000830152610348816102a5565b9050919050565b600060208201905061036460008301846102e5565b92915050565b600082825260208201905092915050565b60006103868261038d565b9050919050565b600073ffffffffffffffffffffffffffffffffffffffff82169050919050565b6000819050919050565b6103c08161037b565b81146103cb57600080fd5b50565b6103d7816103ad565b81146103e257600080fd5b5056fea26469706673582212208b68d69a892bb962b059e15713e92b6618ff552e1145a1b5ab0c9b6a6736fd2e64736f6c63430008000033",
  "linkReferences": {},
  "deployedLinkReferences": {}
}