{
  "_format": "hh-sol-artifact-1",
  "contractName": "Staking",
  "sourceName": "contracts/Staking.sol",
  "abi": [
    {
      "inputs": [
        {
          "internalType": "address",
          "name": "_stakingToken",
          "type": "address"
        },
        {
          "internalType": "address",
          "name": "_rewardsToken",
          "type": "address"
        }
      ],
      "stateMutability": "nonpayable",
      "type": "constructor"
    },
    {
      "anonymous": false,
      "inputs": [
        {
          "indexed": true,
          "internalType": "address",
          "name": "sender",
          "type": "address"
        },
        {
          "indexed": false,
          "internalType": "uint256",
          "name": "amount",
          "type": "uint256"
        }
      ],
      "name": "Staked",
      "type": "event"
    },
    {
      "anonymous": false,
      "inputs": [
        {
          "indexed": true,
          "internalType": "address",
          "name": "sender",
          "type": "address"
        },
        {
          "indexed": false,
          "internalType": "uint256",
          "name": "amount",
          "type": "uint256"
        }
      ],
      "name": "Widthdrawn",
      "type": "event"
    },
    {
      "inputs": [
        {
          "internalType": "uint256",
          "name": "amount",
          "type": "uint256"
        }
      ],
      "name": "approveAndDeposit",
      "outputs": [],
      "stateMutability": "nonpayable",
      "type": "function"
    },
    {
      "inputs": [
        {
          "internalType": "uint256",
          "name": "amount",
          "type": "uint256"
        }
      ],
      "name": "deposit",
      "outputs": [],
      "stateMutability": "nonpayable",
      "type": "function"
    },
    {
      "inputs": [],
      "name": "rewardsToken",
      "outputs": [
        {
          "internalType": "contract IERC20",
          "name": "",
          "type": "address"
        }
      ],
      "stateMutability": "view",
      "type": "function"
    },
    {
      "inputs": [],
      "name": "stakingToken",
      "outputs": [
        {
          "internalType": "contract IERC20",
          "name": "",
          "type": "address"
        }
      ],
      "stateMutability": "view",
      "type": "function"
    },
    {
      "inputs": [
        {
          "internalType": "uint256",
          "name": "amount",
          "type": "uint256"
        }
      ],
      "name": "widthdraw",
      "outputs": [],
      "stateMutability": "nonpayable",
      "type": "function"
    }
  ],
  "bytecode": "0x608060405234801561001057600080fd5b50604051610cbb380380610cbb833981810160405281019061003291906100cf565b816000806101000a81548173ffffffffffffffffffffffffffffffffffffffff021916908373ffffffffffffffffffffffffffffffffffffffff16021790555080600160006101000a81548173ffffffffffffffffffffffffffffffffffffffff021916908373ffffffffffffffffffffffffffffffffffffffff1602179055505050610154565b6000815190506100c98161013d565b92915050565b600080604083850312156100e257600080fd5b60006100f0858286016100ba565b9250506020610101858286016100ba565b9150509250929050565b60006101168261011d565b9050919050565b600073ffffffffffffffffffffffffffffffffffffffff82169050919050565b6101468161010b565b811461015157600080fd5b50565b610b58806101636000396000f3fe608060405234801561001057600080fd5b50600436106100575760003560e01c806372f702f31461005c578063a48b61741461007a578063b6b55f2514610096578063d1af0c7d146100b2578063e0da260c146100d0575b600080fd5b6100646100ec565b6040516100719190610928565b60405180910390f35b610094600480360381019061008f919061076e565b610110565b005b6100b060048036038101906100ab919061076e565b61045c565b005b6100ba6104ad565b6040516100c79190610928565b60405180910390f35b6100ea60048036038101906100e5919061076e565b6104d3565b005b60008054906101000a900473ffffffffffffffffffffffffffffffffffffffff1681565b60008111610153576040517f08c379a000000000000000000000000000000000000000000000000000000000815260040161014a90610983565b60405180910390fd5b8060008054906101000a900473ffffffffffffffffffffffffffffffffffffffff1673ffffffffffffffffffffffffffffffffffffffff166370a08231336040518263ffffffff1660e01b81526004016101ad91906108ad565b60206040518083038186803b1580156101c557600080fd5b505afa1580156101d9573d6000803e3d6000fd5b505050506040513d601f19601f820116820180604052508101906101fd9190610797565b101561023e576040517f08c379a000000000000000000000000000000000000000000000000000000000815260040161023590610943565b60405180910390fd5b806002600082825461025091906109cf565b9250508190555080600360003373ffffffffffffffffffffffffffffffffffffffff1673ffffffffffffffffffffffffffffffffffffffff16815260200190815260200160002060008282546102a691906109cf565b9250508190555060008054906101000a900473ffffffffffffffffffffffffffffffffffffffff1673ffffffffffffffffffffffffffffffffffffffff1663095ea7b330836040518363ffffffff1660e01b81526004016103089291906108ff565b602060405180830381600087803b15801561032257600080fd5b505af1158015610336573d6000803e3d6000fd5b505050506040513d601f19601f8201168201806040525081019061035a9190610745565b5060008054906101000a900473ffffffffffffffffffffffffffffffffffffffff1673ffffffffffffffffffffffffffffffffffffffff166323b872dd3330846040518463ffffffff1660e01b81526004016103b8939291906108c8565b602060405180830381600087803b1580156103d257600080fd5b505af11580156103e6573d6000803e3d6000fd5b505050506040513d601f19601f8201168201806040525081019061040a9190610745565b503373ffffffffffffffffffffffffffffffffffffffff167f9e71bc8eea02a63969f509818f2dafb9254532904319f9dbda79b67bd34a5f3d8260405161045191906109a3565b60405180910390a250565b3373ffffffffffffffffffffffffffffffffffffffff167f9e71bc8eea02a63969f509818f2dafb9254532904319f9dbda79b67bd34a5f3d826040516104a291906109a3565b60405180910390a250565b600160009054906101000a900473ffffffffffffffffffffffffffffffffffffffff1681565b60008111610516576040517f08c379a000000000000000000000000000000000000000000000000000000000815260040161050d90610963565b60405180910390fd5b80600360003373ffffffffffffffffffffffffffffffffffffffff1673ffffffffffffffffffffffffffffffffffffffff168152602001908152602001600020541015610598576040517f08c379a000000000000000000000000000000000000000000000000000000000815260040161058f90610943565b60405180910390fd5b80600260008282546105aa9190610a25565b9250508190555080600360003373ffffffffffffffffffffffffffffffffffffffff1673ffffffffffffffffffffffffffffffffffffffff16815260200190815260200160002060008282546106009190610a25565b9250508190555060008054906101000a900473ffffffffffffffffffffffffffffffffffffffff1673ffffffffffffffffffffffffffffffffffffffff1663a9059cbb33836040518363ffffffff1660e01b81526004016106629291906108ff565b602060405180830381600087803b15801561067c57600080fd5b505af1158015610690573d6000803e3d6000fd5b505050506040513d601f19601f820116820180604052508101906106b49190610745565b503373ffffffffffffffffffffffffffffffffffffffff167fd6721f1d201ce0e8a8163324e5cf62526b032bc3e30629e6fddfb355922b126d826040516106fb91906109a3565b60405180910390a250565b60008151905061071581610af4565b92915050565b60008135905061072a81610b0b565b92915050565b60008151905061073f81610b0b565b92915050565b60006020828403121561075757600080fd5b600061076584828501610706565b91505092915050565b60006020828403121561078057600080fd5b600061078e8482850161071b565b91505092915050565b6000602082840312156107a957600080fd5b60006107b784828501610730565b91505092915050565b6107c981610a59565b82525050565b6107d881610aa1565b82525050565b60006107eb600f836109be565b91507f42616c616e636520746f6f206c6f7700000000000000000000000000000000006000830152602082019050919050565b600061082b6018836109be565b91507f43616e6e6f7420776964746864726177206e6f7468696e6700000000000000006000830152602082019050919050565b600061086b6014836109be565b91507f43616e6e6f74207374616b65206e6f7468696e670000000000000000000000006000830152602082019050919050565b6108a781610a97565b82525050565b60006020820190506108c260008301846107c0565b92915050565b60006060820190506108dd60008301866107c0565b6108ea60208301856107c0565b6108f7604083018461089e565b949350505050565b600060408201905061091460008301856107c0565b610921602083018461089e565b9392505050565b600060208201905061093d60008301846107cf565b92915050565b6000602082019050818103600083015261095c816107de565b9050919050565b6000602082019050818103600083015261097c8161081e565b9050919050565b6000602082019050818103600083015261099c8161085e565b9050919050565b60006020820190506109b8600083018461089e565b92915050565b600082825260208201905092915050565b60006109da82610a97565b91506109e583610a97565b9250827fffffffffffffffffffffffffffffffffffffffffffffffffffffffffffffffff03821115610a1a57610a19610ac5565b5b828201905092915050565b6000610a3082610a97565b9150610a3b83610a97565b925082821015610a4e57610a4d610ac5565b5b828203905092915050565b6000610a6482610a77565b9050919050565b60008115159050919050565b600073ffffffffffffffffffffffffffffffffffffffff82169050919050565b6000819050919050565b6000610aac82610ab3565b9050919050565b6000610abe82610a77565b9050919050565b7f4e487b7100000000000000000000000000000000000000000000000000000000600052601160045260246000fd5b610afd81610a6b565b8114610b0857600080fd5b50565b610b1481610a97565b8114610b1f57600080fd5b5056fea26469706673582212209245616c889654727a2607769abdb952d13381e32e8ba5a252478d63e268013964736f6c63430008000033",
  "linkReferences": {},
  "deployedLinkReferences": {}
}