{
  "_format": "hh-sol-artifact-1",
  "contractName": "StakingNFT",
  "sourceName": "contracts/StakingNFT.sol",
  "abi": [
    {
      "inputs": [],
      "stateMutability": "nonpayable",
      "type": "constructor"
    },
    {
      "anonymous": false,
      "inputs": [
        {
          "indexed": true,
          "internalType": "address",
          "name": "sender",
          "type": "address"
        }
      ],
      "name": "Staked",
      "type": "event"
    },
    {
      "anonymous": false,
      "inputs": [
        {
          "indexed": true,
          "internalType": "address",
          "name": "sender",
          "type": "address"
        }
      ],
      "name": "Widthdrawn",
      "type": "event"
    },
    {
      "inputs": [
        {
          "internalType": "address",
          "name": "operator",
          "type": "address"
        },
        {
          "internalType": "address",
          "name": "from",
          "type": "address"
        },
        {
          "internalType": "uint256",
          "name": "tokenId",
          "type": "uint256"
        },
        {
          "internalType": "bytes",
          "name": "data",
          "type": "bytes"
        }
      ],
      "name": "onERC721Received",
      "outputs": [
        {
          "internalType": "bytes4",
          "name": "",
          "type": "bytes4"
        }
      ],
      "stateMutability": "nonpayable",
      "type": "function"
    },
    {
      "inputs": [
        {
          "internalType": "address",
          "name": "",
          "type": "address"
        },
        {
          "internalType": "uint256",
          "name": "",
          "type": "uint256"
        }
      ],
      "name": "tokenToStakerMap",
      "outputs": [
        {
          "internalType": "address",
          "name": "",
          "type": "address"
        }
      ],
      "stateMutability": "view",
      "type": "function"
    },
    {
      "inputs": [
        {
          "internalType": "address",
          "name": "nftAddress",
          "type": "address"
        },
        {
          "internalType": "uint256",
          "name": "tokenId",
          "type": "uint256"
        }
      ],
      "name": "widthdraw",
      "outputs": [],
      "stateMutability": "nonpayable",
      "type": "function"
    }
  ],
  "bytecode": "0x608060405234801561001057600080fd5b50610768806100206000396000f3fe608060405234801561001057600080fd5b50600436106100415760003560e01c8063150b7a0214610046578063c74b197c14610076578063d4b3020a14610092575b600080fd5b610060600480360381019061005b919061043b565b6100c2565b60405161006d91906105b1565b60405180910390f35b610090600480360381019061008b91906104b6565b6100f9565b005b6100ac60048036038101906100a791906104b6565b610292565b6040516100b9919061055f565b60405180910390f35b60006100ce85846102d4565b7f150b7a023d4804d13e8c85fb27262cb750cf6ba9f9dd3bb30d90f482ceeb4b1f9050949350505050565b60008060008473ffffffffffffffffffffffffffffffffffffffff1673ffffffffffffffffffffffffffffffffffffffff168152602001908152602001600020600083815260200190815260200160002060009054906101000a900473ffffffffffffffffffffffffffffffffffffffff1690503373ffffffffffffffffffffffffffffffffffffffff168173ffffffffffffffffffffffffffffffffffffffff16146101db576040517f08c379a00000000000000000000000000000000000000000000000000000000081526004016101d2906105cc565b60405180910390fd5b8273ffffffffffffffffffffffffffffffffffffffff166342842e0e3033856040518463ffffffff1660e01b81526004016102189392919061057a565b600060405180830381600087803b15801561023257600080fd5b505af1158015610246573d6000803e3d6000fd5b505050503373ffffffffffffffffffffffffffffffffffffffff167fc4ab80d275c28001cd29f3126788cfa957dc115a5769ffd49b6197ce24c5245360405160405180910390a2505050565b60006020528160005260406000206020528060005260406000206000915091509054906101000a900473ffffffffffffffffffffffffffffffffffffffff1681565b336000808473ffffffffffffffffffffffffffffffffffffffff1673ffffffffffffffffffffffffffffffffffffffff168152602001908152602001600020600083815260200190815260200160002060006101000a81548173ffffffffffffffffffffffffffffffffffffffff021916908373ffffffffffffffffffffffffffffffffffffffff1602179055503373ffffffffffffffffffffffffffffffffffffffff167f77338642d9284a44296d29a273e04b8ab6b15c7d2439094cd460b7e4f0b3307460405160405180910390a25050565b60006103bc6103b78461061d565b6105ec565b9050828152602081018484840111156103d457600080fd5b6103df8482856106c6565b509392505050565b6000813590506103f681610704565b92915050565b600082601f83011261040d57600080fd5b813561041d8482602086016103a9565b91505092915050565b6000813590506104358161071b565b92915050565b6000806000806080858703121561045157600080fd5b600061045f878288016103e7565b9450506020610470878288016103e7565b935050604061048187828801610426565b925050606085013567ffffffffffffffff81111561049e57600080fd5b6104aa878288016103fc565b91505092959194509250565b600080604083850312156104c957600080fd5b60006104d7858286016103e7565b92505060206104e885828601610426565b9150509250929050565b6104fb8161065e565b82525050565b61050a81610670565b82525050565b600061051d60188361064d565b91507f596f7520617265206e6f7420746865204f47206f776e657200000000000000006000830152602082019050919050565b610559816106bc565b82525050565b600060208201905061057460008301846104f2565b92915050565b600060608201905061058f60008301866104f2565b61059c60208301856104f2565b6105a96040830184610550565b949350505050565b60006020820190506105c66000830184610501565b92915050565b600060208201905081810360008301526105e581610510565b9050919050565b6000604051905081810181811067ffffffffffffffff82111715610613576106126106d5565b5b8060405250919050565b600067ffffffffffffffff821115610638576106376106d5565b5b601f19601f8301169050602081019050919050565b600082825260208201905092915050565b60006106698261069c565b9050919050565b60007fffffffff0000000000000000000000000000000000000000000000000000000082169050919050565b600073ffffffffffffffffffffffffffffffffffffffff82169050919050565b6000819050919050565b82818337600083830152505050565b7f4e487b7100000000000000000000000000000000000000000000000000000000600052604160045260246000fd5b61070d8161065e565b811461071857600080fd5b50565b610724816106bc565b811461072f57600080fd5b5056fea264697066735822122068d3e6349d9754c9fce6c49c11b6c42d661f0db36f1cfe763bac3cbb4d379c4064736f6c63430008000033",
  "linkReferences": {},
  "deployedLinkReferences": {}
}