{
  "_format": "hh-sol-artifact-1",
  "contractName": "StakingNFT",
  "sourceName": "contracts/StakingNFT.sol",
  "abi": [
    {
      "inputs": [],
      "stateMutability": "nonpayable",
      "type": "constructor"
    },
    {
      "anonymous": false,
      "inputs": [
        {
          "indexed": true,
          "internalType": "address",
          "name": "sender",
          "type": "address"
        }
      ],
      "name": "Staked",
      "type": "event"
    },
    {
      "anonymous": false,
      "inputs": [
        {
          "indexed": true,
          "internalType": "address",
          "name": "sender",
          "type": "address"
        }
      ],
      "name": "Widthdrawn",
      "type": "event"
    },
    {
      "inputs": [
        {
          "internalType": "address",
          "name": "operator",
          "type": "address"
        },
        {
          "internalType": "address",
          "name": "from",
          "type": "address"
        },
        {
          "internalType": "uint256",
          "name": "tokenId",
          "type": "uint256"
        },
        {
          "internalType": "bytes",
          "name": "data",
          "type": "bytes"
        }
      ],
      "name": "onERC721Received",
      "outputs": [
        {
          "internalType": "bytes4",
          "name": "",
          "type": "bytes4"
        }
      ],
      "stateMutability": "nonpayable",
      "type": "function"
    },
    {
      "inputs": [
        {
          "internalType": "address",
          "name": "nftAddress",
          "type": "address"
        },
        {
          "internalType": "uint256",
          "name": "tokenId",
          "type": "uint256"
        }
      ],
      "name": "stake",
      "outputs": [],
      "stateMutability": "nonpayable",
      "type": "function"
    },
    {
      "inputs": [
        {
          "internalType": "address",
          "name": "nftAddress",
          "type": "address"
        },
        {
          "internalType": "uint256",
          "name": "tokenId",
          "type": "uint256"
        }
      ],
      "name": "widthdraw",
      "outputs": [],
      "stateMutability": "nonpayable",
      "type": "function"
    }
  ],
  "bytecode": "0x608060405234801561001057600080fd5b5061075c806100206000396000f3fe608060405234801561001057600080fd5b50600436106100415760003560e01c8063150b7a0214610046578063adc9772e14610076578063c74b197c14610092575b600080fd5b610060600480360381019061005b919061044a565b6100ae565b60405161006d91906105a5565b60405180910390f35b610090600480360381019061008b91906104c5565b6100db565b005b6100ac60048036038101906100a791906104c5565b61021f565b005b60007f150b7a023d4804d13e8c85fb27262cb750cf6ba9f9dd3bb30d90f482ceeb4b1f9050949350505050565b336000808473ffffffffffffffffffffffffffffffffffffffff1673ffffffffffffffffffffffffffffffffffffffff168152602001908152602001600020600083815260200190815260200160002060006101000a81548173ffffffffffffffffffffffffffffffffffffffff021916908373ffffffffffffffffffffffffffffffffffffffff1602179055508173ffffffffffffffffffffffffffffffffffffffff166342842e0e3330846040518463ffffffff1660e01b81526004016101a69392919061056e565b600060405180830381600087803b1580156101c057600080fd5b505af11580156101d4573d6000803e3d6000fd5b505050503373ffffffffffffffffffffffffffffffffffffffff167f77338642d9284a44296d29a273e04b8ab6b15c7d2439094cd460b7e4f0b3307460405160405180910390a25050565b60008060008473ffffffffffffffffffffffffffffffffffffffff1673ffffffffffffffffffffffffffffffffffffffff168152602001908152602001600020600083815260200190815260200160002060009054906101000a900473ffffffffffffffffffffffffffffffffffffffff1690503373ffffffffffffffffffffffffffffffffffffffff168173ffffffffffffffffffffffffffffffffffffffff1614610301576040517f08c379a00000000000000000000000000000000000000000000000000000000081526004016102f8906105c0565b60405180910390fd5b8273ffffffffffffffffffffffffffffffffffffffff166342842e0e3033856040518463ffffffff1660e01b815260040161033e9392919061056e565b600060405180830381600087803b15801561035857600080fd5b505af115801561036c573d6000803e3d6000fd5b505050503373ffffffffffffffffffffffffffffffffffffffff167fc4ab80d275c28001cd29f3126788cfa957dc115a5769ffd49b6197ce24c5245360405160405180910390a2505050565b60006103cb6103c684610611565b6105e0565b9050828152602081018484840111156103e357600080fd5b6103ee8482856106ba565b509392505050565b600081359050610405816106f8565b92915050565b600082601f83011261041c57600080fd5b813561042c8482602086016103b8565b91505092915050565b6000813590506104448161070f565b92915050565b6000806000806080858703121561046057600080fd5b600061046e878288016103f6565b945050602061047f878288016103f6565b935050604061049087828801610435565b925050606085013567ffffffffffffffff8111156104ad57600080fd5b6104b98782880161040b565b91505092959194509250565b600080604083850312156104d857600080fd5b60006104e6858286016103f6565b92505060206104f785828601610435565b9150509250929050565b61050a81610652565b82525050565b61051981610664565b82525050565b600061052c601883610641565b91507f596f7520617265206e6f7420746865204f47206f776e657200000000000000006000830152602082019050919050565b610568816106b0565b82525050565b60006060820190506105836000830186610501565b6105906020830185610501565b61059d604083018461055f565b949350505050565b60006020820190506105ba6000830184610510565b92915050565b600060208201905081810360008301526105d98161051f565b9050919050565b6000604051905081810181811067ffffffffffffffff82111715610607576106066106c9565b5b8060405250919050565b600067ffffffffffffffff82111561062c5761062b6106c9565b5b601f19601f8301169050602081019050919050565b600082825260208201905092915050565b600061065d82610690565b9050919050565b60007fffffffff0000000000000000000000000000000000000000000000000000000082169050919050565b600073ffffffffffffffffffffffffffffffffffffffff82169050919050565b6000819050919050565b82818337600083830152505050565b7f4e487b7100000000000000000000000000000000000000000000000000000000600052604160045260246000fd5b61070181610652565b811461070c57600080fd5b50565b610718816106b0565b811461072357600080fd5b5056fea2646970667358221220ca7f44ddfe432736ffc25a48e76051e2484ac7af2ada124d8dbef80f18ab038c64736f6c63430008000033",
  "linkReferences": {},
  "deployedLinkReferences": {}
}